:020000040000FA
:10000000E8020020C9020000D1020000D302000073
:10001000D5020000D7020000D90200000000000055
:10002000000000000000000000000000DB020000F3
:10003000DD02000000000000DF020000650E00008D
:10004000E3020000E5020000E7020000E902000010
:10005000EB020000090F0000EF020000F1020000B7
:10006000F3020000F5020000F7020000F9020000B0
:10007000FB020000FD020000FF020000010300007F
:10008000030300000503000007030000090300004C
:100090000B0300000D0300000F030000110300001C
:1000A00013030000150300001703000019030000EC
:1000B0001B0300001D0300001F03000021030000BC
:1000C000230300002503000027030000290300008C
:1000D0002B0300002D0300002F030000310300005C
:1000E000330300003503000037030000390300002C
:1000F0003B0300003D0300003F03000041030000FC
:1001000043030000450300004703000049030000CB
:100110004B0300004D0300004F030000510300009B
:10012000530300005503000057030000590300006B
:100130005B0300005D0300005F030000610300003B
:1001400063030000650300006703000081030000F3
:100150000000000000000000830300008503000091
:100160008703000089030000000000008B030000EB
:100170008D0300008F030000910300009303000033
:100180009503000097030000990300009B03000003
:100190009D0300009F030000A1030000A3030000D3
:1001A000A5030000A7030000A9030000AB030000A3
:1001B000AD030000AF030000B1030000B303000073
:1001C000B5030000B7030000B9030000BB03000043
:1001D000BD030000BF030000C1030000C303000013
:1001E000C5030000C7030000C9030000CB030000E3
:1001F000CD030000CF030000D1030000D3030000B3
:1002000000F002F800F03CF80AA090E8000C8244EC
:100210008344AAF10107DA4501D100F031F8AFF2C9
:10022000090EBAE80F0013F0010F18BFFB1A43F0D4
:10023000010318471416000034160000103A24BFBA
:1002400078C878C1FAD8520724BF30C830C144BF3B
:1002500004680C607047000000230024002500267D
:10026000103A28BF78C1FBD8520728BF30C148BF19
:100270000B6070471FB501F001F81FBD10B510BD30
:1002800000F01BF91146FFF7F5FF00F02FFF00F01B
:1002900039F903B4FFF7F2FF03BC00F041F90000A5
:1002A000EFF3108072B67047EFF310807047EFF3F2
:1002B000108062B6704730BF704780F31188704776
:1002C000EFF31180704700004548804745480047DC
:1002D000FEE7FEE7FEE7FEE7FEE7FEE7FEE7FEE7F6
:1002E000FEE7FEE7FEE7FEE7FEE7FEE7FEE7FEE7E6
:1002F000FEE7FEE7FEE7FEE7FEE7FEE7FEE7FEE7D6
:10030000FEE7FEE7FEE7FEE7FEE7FEE7FEE7FEE7C5
:10031000FEE7FEE7FEE7FEE7FEE7FEE7FEE7FEE7B5
:10032000FEE7FEE7FEE7FEE7FEE7FEE7FEE7FEE7A5
:10033000FEE7FEE7FEE7FEE7FEE7FEE7FEE7FEE795
:10034000FEE7FEE7FEE7FEE7FEE7FEE7FEE7FEE785
:10035000FEE7FEE7FEE7FEE7FEE7FEE7FEE7FEE775
:10036000FEE7FEE7FEE7FEE7FEE7FEE7FEE7FEE765
:10037000FEE7FEE7FEE7FEE7FEE7FEE7FEE7FEE755
:10038000FEE7FEE7FEE7FEE7FEE7FEE7FEE7FEE745
:10039000FEE7FEE7FEE7FEE7FEE7FEE7FEE7FEE735
:1003A000FEE7FEE7FEE7FEE7FEE7FEE7FEE7FEE725
:1003B000FEE7FEE7FEE7FEE7FEE7FEE7FEE7FEE715
:1003C000FEE7FEE7FEE7FEE7FEE7FEE7FEE7FEE705
:1003D000FEE7FEE704480549034A054B7047000065
:1003E000E90E000001020000E8000020E802002001
:1003F000E800002010B5431C02E010F8011B71B1A9
:100400008107FAD14FF0013202C88C1A8C4314EAEA
:10041000C211F9D0C01A0A0603D0C01E10BDC01AFE
:1004200010BD0A0401D0801E10BD0902FCD0401E80
:1004300010BD00004FF0013C50F8042B51F8043B74
:100440009A4221D1A2EB0C03934313EACC1317D1A8
:1004500050F8042B51F8043B9A4215D1A2EB0C033F
:10046000934313EACC130BD150F8042B51F8043BFF
:100470009A4209D1A2EB0C03934313EACC13DBD0CD
:100480004FF00000704700BFD01A01BAB1FA81F1F5
:1004900001F0180122FA01F0CB40C1F12001DBB2DA
:1004A000C0B2C01A2CFA01F3D11A914311EAC31158
:1004B000E6D17047704770477047754600F02CF8DA
:1004C000AE4605006946534620F00700854618B041
:1004D00020B5FFF77FFFBDE820404FF000064FF04A
:1004E00000074FF000084FF0000B21F00701AC4669
:1004F000ACE8C009ACE8C009ACE8C009ACE8C00988
:100500008D46704710B50446AFF300802046BDE825
:100510001040FFF7BEBE0000004870478800002072
:1005200001491820ABBEFEE72600020070470021FB
:1005300000E0491C8142FCD37047D0F8003412F02F
:10054000010F14BF0B438B43C0F8003412F0020FAD
:10055000D0F8202414BF114322EA0101C0F820146E
:1005600070472DE9F00301264FF0000C0325C2F37C
:10057000411706FA0CF40C4211D0D0F8C48F4FEAA0
:100580004C0405FA04F928EA0908C0F8C48FD0F829
:10059000C48F07FA04F448EA0404C0F8C44F0CF10D
:1005A000010C0CF0FF0CBCF1080FE2D3D0F800C531
:1005B00012F0010F14BF4CEA010C2CEA010CC0F838
:1005C00000C5D0F804C512F0020F14BF4CEA010CAC
:1005D0002CEA010CC0F804C5D0F808C512F0040FCD
:1005E00014BF4CEA010C2CEA010CC0F808C5D0F885
:1005F00018C512F0080F14BF4CEA010C2CEA010CCC
:10060000C0F818C512F0100FD0F83C2514BF0A43EB
:100610008A43C0F83C25D0F80C2513F0010F14BF15
:100620000A438A43C0F80C25D0F8102513F0020FB6
:1006300014BF0A438A43C0F81025D0F8142513F0DC
:10064000040F14BF0A438A43C0F81425D0F81C25B0
:1006500013F0080F14BF0A438A43C0F81C25D0F8D2
:10066000442513F4007F14BF0A438A43C0F844258D
:10067000D0F8402513F4407F14BF0A438A43C0F8E2
:100680004025D0F82825002B0CBF114322EA010198
:10069000C0F82815BDE8F003704700000E4AC0F30B
:1006A0000741D26E01238B401A420C4A1ABF02EB5B
:1006B000C101496852F83110020AD1F82C354FF0C7
:1006C0000F0C0CFA02FC00F00F0023EA0C03904020
:1006D0001843C1F82C05704700E00F405814000083
:1006E00050F82100704730B50C4605460022FFF750
:1006F00024FF21462846BDE8304008230122FFF7A9
:1007000030BF30B50C46054608230122FFF729FF0C
:1007100021462846BDE830400122FFF70EBF30B524
:100720000C4605460222FFF708FF21462846BDE891
:10073000304009230122FFF714BF30B50C460546AF
:100740000222FFF7FAFE21462846BDE83040082382
:100750000122FFF706BF30B50C4605460222FFF71F
:10076000ECFE21462846BDE8304008230122FFF771
:10077000F8BE40F8212070472DE9F04104460F46AD
:10078000154600BF184800F031F80028FAD10022C1
:100790002146154800F070F83946134800F02EF84D
:1007A0000321114800F028F800BF0F4800F01EF8A0
:1007B0000028FAD10C4800F028F8C6B229460A48A9
:1007C00000F01CF80521084800F016F800BF0648A4
:1007D00000F00CF80028FAD1034800F016F8C6B271
:1007E0003046BDE8F081000000000240406810F093
:1007F000010018BF01207047416070478160704759
:10080000016A41F0100101627047406810F0010F69
:1008100005D110F0120F1CBF00F01C007047002023
:1008200070470000036A43F010030362002A14BFFC
:100830000E4A0F4A02EB820301EB830302EB8202B2
:1008400092005B1EB3FBF2F2521EC260D0F8C02FC2
:1008500012F0010F08BF7047064A1144521CB1FB49
:10086000F2F1491E41F08001C1607047801A060014
:10087000A08601007F47370142EA410101607047CD
:100880001649042804BF086840F4803018D00528B1
:1008900004BF086840F4003012D0062812D00F2898
:1008A00015D0102838BF7047103800F01F01012202
:1008B00002FA01F142090A4850F82200016070472B
:1008C00008607047086840F48020086070474FF067
:1008D000E020016941F002010161704724ED00E070
:1008E000A415000010B5FFF7E2FC002818BF012096
:1008F00010BD0000054A20F0030151580968800727
:10090000C00E21FA00F0C0B27047000008150000C8
:1009100006480068064A00F4E061002052F82030E2
:100920008B421CBF401C0828F8D370470CED00E038
:10093000E8140000044951F82000044940F0FD701B
:1009400040F0806008607047E81400000CED00E0A3
:10095000FFF7B6BC084A20F00303D258136880079B
:10096000C00E4FF0FF0C0CFA00FC23EA0C0301FA56
:1009700000F01843106070470815000010B51B48C0
:1009800000F032FA00BF194800F042FA0028FAD00D
:100990001648C01C00F028FA00BF1448C01C00F024
:1009A00037FA0028F9D01148C01D00F01DFA00BF29
:1009B0000E48C01D00F02CFA0028F9D001210C4887
:1009C000FFF79FFE01210B48FFF79BFE022109481C
:1009D000FFF797FE03210848FFF785FE0A2301224F
:1009E00003210548FFF7BDFD10BD0000050800F01C
:1009F000005002400040064000D0034010B51E48A1
:100A000000F0F2F91D4800F0EFF91D48FFF746FE2F
:100A10001C48FFF743FE04211B48FFF78EFE082108
:100A20001948FFF77CFE0122184801681848FFF7B3
:100A3000F9FE1748FFF7E4FEFF220C212220FFF702
:100A40009BFE044600220D212220FFF795FE04465E
:100A500000220E212220FFF78FFE044600220321F0
:100A60001820FFF789FE0446FF2201211820FFF716
:100A700083FE044610BD0000002000F0010800F0D5
:100A800002080100020C0100005000400C00002090
:100A90000000024010B5124800F0A6F9114800F01D
:100AA000A3F900BF0F4800F0B3F90028FAD00120E5
:100AB000FFF7F4FD40F20140FFF7F0FD03214FF096
:100AC0004020FFF748FE60234FF4E13206480168FA
:100AD000064800F0ACFA06A000F0ECFA10BD0000E9
:100AE000001800F0000800F00C00002000C00040DA
:100AF0000D0A48656C6C6F2C20776F726C64210D49
:100B00000A0000002DE9F003AD4D02462868AD4B08
:100B10001840A0F18053B3F5A02358D002F0380953
:100B2000DFF8A482C2F38414B9F1100F24D0B9F114
:100B3000300F04BF47F230504FF400130CD0382070
:100B4000904304BF4FF40040C30105D012F0380FAA
:100B50001CBF0020034613D09C4F12F4605F4FF07F
:100B6000000618BF00222CD057F8324044457DD3F0
:100B700007EBC2025268DFE0002340461524EBE792
:100B8000A4F10900122822D29148D5F87CC04FF078
:100B90004C7350F824002CF01C0C072CA8BF4CF010
:100BA000100CC5F87CC02E6D4FF4002C16F4807F1D
:100BB000D2D1BCF1010C0AD02E6D16F4807FF8D092
:100BC000CAE712F0380F18BFB9F1100F03D0BDE813
:100BD000F00300207047C2F30268DFF8F8C100227A
:100BE00057F83290E14503D307EBC202526803E0A5
:100BF000521C062AF4D33246C5F8C020D5F8B020DE
:100C0000DFF8D4C102EA0C0242F00042C5F8B0207D
:100C1000DFF8C8C1A4F109024C1E5CF828C0A44446
:100C2000BCFBF1FCD5F8B0101943C5F8B01008EBC7
:100C3000C80101EB41046A4902EB420201EBC40125
:100C400001EB82046468C5F86441D5F864416FF033
:100C5000FF0808EB0C2C44EA0C0CC5F864C151F8F1
:100C60002210D5F8602102F4000200E05FE0114399
:100C7000C5F86011D5F86011D5F86021C1F389215C
:100C8000C2F30904D5F86421C2F3042202F1010C75
:100C9000D5F8642102F01F02521CB0FBF2F04A09A1
:100CA000C2F100084443424301EB481104EB5212E5
:100CB000484302EB9020B0FBFCF0410808460022BC
:100CC00057F832C0844503D307EBC200466802E000
:100CD000521C062AF4D3C5F8C060D5F8600110F4A0
:100CE000000F1DBFD5F8B00040F08040C5F8B0003F
:100CF000D5F8600104BF40F40000C5F860014FF46E
:100D00000040D5F8682112F0010F02D1401E0028E2
:100D1000F7DC002808BF002148D0D5F8B000184300
:100D200040F0010040F01040C5F8B0003EE0521C19
:100D3000062AFFF419AF3246C5F8C020D5F8602165
:100D400022F40002C5F86021D5F8B020DFF894C085
:100D500002EA0C0242F00042C5F8B020002908BFA8
:100D60004FF0000C0AD0B0FBF1FCBCF1000F18BF33
:100D7000ACF1010C0CF10101B0FBF1F108460022CD
:100D800057F83240844203D307EBC200466802E0C2
:100D9000521C062AF4D3C5F8C060D5F8B00043EA67
:100DA0008C22104340F00040C5F8B000D5F8B000E8
:100DB00020F47000C5F8B000BDE8F00308467047A5
:100DC00000E00F400000FF700024F400181800003D
:100DD000FC15000040787D0100FC0FE0F4150000D8
:100DE00068160000FF0300EFC0F307230749C0B2F5
:100DF000194401F07043C1F3130143EA411141EA80
:100E0000800040F0007001220260704700E60F4051
:100E1000C0F307220849C0B2114401F07042C1F387
:100E2000130142EA411141EA800040F0007000687D
:100E3000002818BF0120704700EA0F404FF0E02063
:100E4000016941F00501016170474FF0E02001693F
:100E500041F00201016170474FF0E021401E4861FE
:100E60007047000010B51A48008828B1184800885B
:100E7000401E1749088005E06420154908800120BC
:100E8000144908701448008828B113480088401E8F
:100E90001149088005E00A200F49088001200F4908
:100EA000087001210E48FFF71BFC50B900200B49C8
:100EB000087008490870012211460A48FFF759FCDA
:100EC00004E0002201210748FFF753FC10BD000099
:100ED0000200002005000020000000200400002087
:100EE00000D00340004006400448006840F4700011
:100EF00002490860024803490860704788ED00E035
:100F00000024F4003400002070B500240121314891
:100F100000F0CAF8054629462E4800F0BFF812E056
:100F20002C4800F069F82C490870084600782B49D5
:100F300008550021294A601C115444B2C4EB041125
:100F40004800FFF7F4FA234800F06CF80028E7D1D6
:100F50002248FFF74FFA06462148FFF74BFA864230
:100F600008D11F491D48FFF765FA18B91D4800F060
:100F7000AFF814E01948FFF73DFA06461A48FFF7A4
:100F800039FA864208D118491448FFF753FA18B9BC
:100F9000164800F09DF802E0104800F099F8002291
:100FA00002211348FFF7E5FB4FF47A70FFF7BFFA11
:100FB00004E0022211460E48FFF7DBFB02210D4838
:100FC000FFF78EFB0028F4D0002202210848FFF72B
:100FD000D0FB70BD00C0004032000020380000206F
:100FE000861200009E1200008F120000AD12000059
:100FF0000040064000D00340816911F0100F0CBF83
:1010000000684FF0FF307047826912F0200FFBD16B
:1010100001607047826912F0200F06BF0160012055
:10102000002070478069012121EA10107047D0F834
:1010300018C01CF0080FFAD1D0F82CC02CF0100CFE
:10104000C0F82CC0D0F830C02CF0010C2CF4407C3F
:10105000C0F830C0D0F830C0B1EB021F34BF4CF044
:10106000200C2CF0200CC0F830C038BF5208C9004A
:10107000B1FBF2F1491C49088A09426201F03F01C3
:101080008162C36200218161C16A41F01001C162C5
:10109000016B40F2013211430163704741647047B4
:1010A000826B114381637047002914BF006CC06BD1
:1010B0007047000010B5044604E014F8011B034813
:1010C000FFF7A2FF20780028F7D110BD00C0004034
:1010D00010B5044604E014F8011B0348FFF79AFF1B
:1010E00020780028F7D110BD00C000401CB553493E
:1010F0005348FFF707FD53490860084600684FF45E
:101100007A71B0FBF1F42046FFF7A6FEFFF796FEDA
:10111000FFF79BFEFFF732FCFFF770FCFFF7BAFC0E
:101120001520FFF7ADFB50214748FFF7B9FFFFF748
:10113000D9FBFFF70DFC454908600320FFF7FAFBD8
:1011400000211520FFF706FCE0210F20FFF702FC2D
:10115000FFF7DEFB3E4908601520FFF7CBFB3D495A
:1011600008600F20FFF7C6FB3B49086065E03B487D
:10117000007808B3002039490870BDF80000401C11
:1011800080B200901E2817DB0020009034480078C1
:1011900028B1012211463348FFF7EBFA04E00022A0
:1011A00001213048FFF7E5FA2D48007808B9012001
:1011B00000E000202A4908702B48007800283CD025
:1011C000002029490870BDF80400401C80B201903D
:1011D000052832DB00200190244925480078401C76
:1011E0000A5C05212220FFF7C7FA2249087022482D
:1011F000027806212220FFF7BFFA1E4908701E4818
:101200000078C043C2B201211820FFF7B5FA19498E
:10121000087017480078401C154908701648007877
:101220004006000E1449087011480078082804DBB5
:101230000120087000200E49087098E7002D310148
:10124000500500F10C00002000C0004014000020F8
:10125000100000201C0000201800002004000020C6
:10126000090000200050024005000020200000205E
:1012700007000020060000200A0000204FF0407008
:10128000E1EE100A704741542B434C415353004147
:10129000542B53545544454E54434F444500434CFE
:1012A00041535320463136303333303500434F44B9
:1012B0004520353136303231393130323333000068
:1012C00000400040100000000080054010000000B9
:1012D0000050004011000000009005401100000087
:1012E000006000401200000000A005401200000055
:1012F000007000401300000000B005401300000023
:10130000004002401400000000C00540140000002E
:10131000005002402E00000000D005402E000000CA
:10132000006002402F00000000E005402F00000098
:10133000007002403000000000F005403000000066
:1013400000D00340460000000000064046000000B8
:101350000010064047000000002006404800000042
:10136000003006407F000000004006408000000082
:101370000050064084000000006006408C00000021
:1013800000400040100000000080054010000000F8
:1013900000500040110000000090054011000000C6
:1013A000006000401200000000A005401200000094
:1013B000007000401300000000B005401300000062
:1013C000004002401400000000C00540140000006E
:1013D000005002402E00000000D005402E0000000A
:1013E000006002402F00000000E005402F000000D8
:1013F000007002403000000000F0054030000000A6
:1014000000D00340430000000000064043000000FD
:101410000010064044000000002006404500000087
:10142000003006405800000000400640590000000F
:10143000005006405C0000000060064064000000B0
:10144000007006406C000000008006406D00000047
:10145000009006407F0000000040004000800540F2
:1014600000500040009005400060004000A0054092
:101470000070004000B005400040024000C0054040
:101480000050024000D005400060024000E00540EE
:101490000070024000F0054000D00340000006400C
:1014A00000100640001006400020064000200640C4
:1014B0000030064000300640004006400040064034
:1014C00000500640005006400060064000600640A4
:1014D0000070064000700640008006400080064014
:1014E0000090064000900640000700000006000043
:1014F00000050000000400000003000000020000DE
:1015000000010000000000000000000018ED00E0F5
:101510001CED00E020ED00E000E400E004E400E069
:1015200008E400E00CE400E010E400E014E400E073
:1015300018E400E01CE400E020E400E024E400E023
:1015400028E400E02CE400E030E400E034E400E0D3
:1015500038E400E03CE400E040E400E044E400E083
:1015600048E400E04CE400E050E400E054E400E033
:1015700058E400E05CE400E060E400E064E400E0E3
:1015800068E400E06CE400E070E400E074E400E093
:1015900078E400E07CE400E080E400E084E400E043
:1015A00088E400E000E100E004E100E008E100E0A0
:1015B0000CE100E010E100E080E100E084E100E007
:1015C00088E100E08CE100E090E100E000E200E072
:1015D00004E200E008E200E00CE200E010E200E0DB
:1015E00080E200E084E200E088E200E08CE200E0DB
:1015F00090E200E000688909001C4E0E40420F0096
:1016000000201C0080841E0000802500999E36006A
:101610000040380000093D0000803E0000004B0003
:10162000404B4C0000204E00808D5B0000C05D00F0
:101630000080700000127A0000007D008096980003
:10164000001BB7000080BB00C0E8CE00647ADA005F
:101650000024F4000000FA0080A81201002D3101DE
:1016600000366E0140787D0140000000000000005F
:10167000000100003E000800000000000001000022
:10168000A00000000200000000010000345401002E
:1016900000000000000100002B70060000000000A8
:1016A0000001000028000000000000000001000010
:1016B00027000100000000000001000020000000E1
:1016C00000000000000100005000000002000000C7
:1016D000000100001AAC0000000000000001000042
:1016E0001794090000000000000100001698050092
:1016F00000000000000100001400000000000000D5
:10170000000100001380080000000000000100003C
:10171000A000000008000000000100001000000010
:10172000000000000001000028000000020000008E
:101730000001000040000000040000000001000063
:101740006000000000000000000100005D000C00CF
:101750000000000000010000500000000000000038
:10176000000100004E000200000000000001000027
:1017700041AC010000000000000100003C0000003E
:1017800000000000000100003A8009000000000095
:101790000001000030000000000000000001000017
:1017A00028000000000000000001000027000100E8
:1017B000000000000001000023600600000000009F
:1017C000000100002160080000000000000100008E
:1017D0001E00000000000000000100001DC0040009
:1017E00000000000000100005000000002000000A6
:1017F00000010000180000000000000000010000CF
:101800001400000000000000000100006000000063
:1018100004000000000100000024F400300030004B
:10182000005A62029100910000879303D200D20017
:1018300000B4C4041301130100E1F505540154017F
:10184000000E270795019501681800000000002090
:10185000380000003C020000A01800003800002002
:10186000B00200005802000000000000000000006C
:101870000000010000000000000000000000000067
:1018800000000000000000003F065B4F666D7D0712
:101890007F6F777C585E79715C0000000024F40053
:04000005000002C92C
:00000001FF
