:020000040000FA
:10000000F8020020A1020000A9020000AB020000DB
:10001000AD020000AF020000B102000000000000CD
:10002000000000000000000000000000B30200001B
:10003000B502000000000000B7020000ED0D000056
:10004000BB020000BD020000BF020000C1020000B0
:10005000C3020000A50E0000C7020000C902000094
:10006000CB020000CD020000CF020000D102000050
:10007000D3020000D5020000D7020000D902000020
:10008000DB020000DD020000DF020000E1020000F0
:10009000E3020000E5020000E7020000E9020000C0
:1000A000EB020000ED020000EF020000F102000090
:1000B000F3020000F5020000F7020000F902000060
:1000C000FB020000FD020000FF020000010300002F
:1000D00003030000050300000703000009030000FC
:1000E0000B0300000D0300000F03000011030000CC
:1000F000130300001503000017030000190300009C
:100100001B0300001D0300001F030000210300006B
:10011000230300002503000027030000290300003B
:100120002B0300002D0300002F030000310300000B
:1001300033030000350300003703000039030000DB
:100140003B0300003D0300003F0300005903000093
:1001500000000000000000005B0300005D030000E1
:100160005F03000061030000000000006303000063
:100170006503000067030000690300006B030000D3
:100180006D0300006F0300007103000073030000A3
:100190007503000077030000790300007B03000073
:1001A0007D0300007F030000810300008303000043
:1001B0008503000087030000890300008B03000013
:1001C0008D0300008F0300009103000093030000E3
:1001D0009503000097030000990300009B030000B3
:1001E0009D0300009F030000A1030000A303000083
:1001F000A5030000A7030000A9030000AB03000053
:1002000000F002F800F03CF80AA090E8000C8244EC
:100210008344AAF10107DA4501D100F031F8AFF2C9
:10022000090EBAE80F0013F0010F18BFFB1A43F0D4
:10023000010318474019000060190000103A24BF5C
:1002400078C878C1FAD8520724BF30C830C144BF3B
:1002500004680C607047000000230024002500267D
:10026000103A28BF78C1FBD8520728BF30C148BF19
:100270000B6070471FB501F0ABF91FBD10B510BD85
:1002800000F0F9F81146FFF7F5FF01F029F800F04A
:1002900017F903B4FFF7F2FF03BC00F01FF90000E9
:1002A0004548804745480047FEE7FEE7FEE7FEE792
:1002B000FEE7FEE7FEE7FEE7FEE7FEE7FEE7FEE716
:1002C000FEE7FEE7FEE7FEE7FEE7FEE7FEE7FEE706
:1002D000FEE7FEE7FEE7FEE7FEE7FEE7FEE7FEE7F6
:1002E000FEE7FEE7FEE7FEE7FEE7FEE7FEE7FEE7E6
:1002F000FEE7FEE7FEE7FEE7FEE7FEE7FEE7FEE7D6
:10030000FEE7FEE7FEE7FEE7FEE7FEE7FEE7FEE7C5
:10031000FEE7FEE7FEE7FEE7FEE7FEE7FEE7FEE7B5
:10032000FEE7FEE7FEE7FEE7FEE7FEE7FEE7FEE7A5
:10033000FEE7FEE7FEE7FEE7FEE7FEE7FEE7FEE795
:10034000FEE7FEE7FEE7FEE7FEE7FEE7FEE7FEE785
:10035000FEE7FEE7FEE7FEE7FEE7FEE7FEE7FEE775
:10036000FEE7FEE7FEE7FEE7FEE7FEE7FEE7FEE765
:10037000FEE7FEE7FEE7FEE7FEE7FEE7FEE7FEE755
:10038000FEE7FEE7FEE7FEE7FEE7FEE7FEE7FEE745
:10039000FEE7FEE7FEE7FEE7FEE7FEE7FEE7FEE735
:1003A000FEE7FEE7FEE7FEE7FEE7FEE70448054955
:1003B000034A054B70470000850E00000102000053
:1003C000F8000020F8020020F800002030B50546B3
:1003D0000B462A4613F8014B12F8010B08B1A04254
:1003E000F8D01CB1002802D06D1CF1E7284630BDC2
:1003F0004FF0013C50F8042B51F8043B9A4221D1B4
:10040000A2EB0C03934313EACC1317D150F8042B3F
:1004100051F8043B9A4215D1A2EB0C03934313EA23
:10042000CC130BD150F8042B51F8043B9A4209D15C
:10043000A2EB0C03934313EACC13DBD04FF0000084
:10044000704700BFD01A01BAB1FA81F101F018016A
:1004500022FA01F0CB40C1F12001DBB2C0B2C01AD8
:100460002CFA01F3D11A914311EAC311E6D1704776
:10047000704770477047754600F02CF8AE4605008F
:100480006946534620F00700854618B020B5FFF7AF
:100490008DFFBDE820404FF000064FF000074FF001
:1004A00000084FF0000B21F00701AC46ACE8C00992
:1004B000ACE8C009ACE8C009ACE8C0098D4670479B
:1004C00010B50446AFF300802046BDE81040FFF7AA
:1004D000E0BE000000487047940000200149182049
:1004E000ABBEFEE7260002007047002100E0491C79
:1004F0008142FCD37047D0F8003412F0010F14BFD2
:100500000B438B43C0F8003412F0020FD0F82024C4
:1005100014BF114322EA0101C0F8201470472DE9ED
:10052000F00301264FF0000C0325C2F3411706FA31
:100530000CF40C4211D0D0F8C48F4FEA4C0405FAE9
:1005400004F928EA0908C0F8C48FD0F8C48F07FA64
:1005500004F448EA0404C0F8C44F0CF1010C0CF098
:10056000FF0CBCF1080FE2D3D0F800C512F0010F68
:1005700014BF4CEA010C2CEA010CC0F800C5D0F8FD
:1005800004C512F0020F14BF4CEA010C2CEA010C56
:10059000C0F804C5D0F808C512F0040F14BF4CEA27
:1005A000010C2CEA010CC0F808C5D0F818C512F0EF
:1005B000080F14BF4CEA010C2CEA010CC0F818C556
:1005C00012F0100FD0F83C2514BF0A438A43C0F83C
:1005D0003C25D0F80C2513F0010F14BF0A438A43C1
:1005E000C0F80C25D0F8102513F0020F14BF0A43F1
:1005F0008A43C0F81025D0F8142513F0040F14BF57
:100600000A438A43C0F81425D0F81C2513F0080FBC
:1006100014BF0A438A43C0F81C25D0F8442513F4BC
:10062000007F14BF0A438A43C0F84425D0F8402510
:1006300013F4407F14BF0A438A43C0F84025D0F822
:100640002825002B0CBF114322EA0101C0F8281510
:10065000BDE8F003704700000E4AC0F30741D26EB8
:1006600001238B401A420C4A1ABF02EBC1014968B0
:1006700052F83110020AD1F82C354FF00F0C0CFA59
:1006800002FC00F00F0023EA0C0390401843C1F86D
:100690002C05704700E00F407417000050F821004F
:1006A000704730B50C4605460022FFF724FF21466F
:1006B0002846BDE8304008230122FFF730BF30B59F
:1006C0000C46054608230122FFF729FF214628464C
:1006D000BDE830400122FFF70EBF30B50C4605469D
:1006E0000222FFF708FF21462846BDE830400923D3
:1006F0000122FFF714BF30B50C4605460222FFF772
:10070000FAFE21462846BDE8304008230122FFF7C3
:1007100006BF30B50C4605460222FFF7ECFE214627
:100720002846BDE8304008230122FFF7F8BE00004C
:100730002DE9F04105460F46164600BF1B4800F064
:1007400037F80028FAD100222946184800F070F83E
:100750003946164800F034F80321144800F02EF80A
:1007600000BF124800F024F80028FAD10F4800F02A
:1007700029F8C4B234B104210C4800F01FF8204617
:10078000BDE8F0813146094800F01AF80521074814
:1007900000F014F800BF054800F00AF80028FAD16C
:1007A000024800F00FF8C4B22046E9E7000002401A
:1007B000406810F0010018BF012070474160704789
:1007C00081607047406810F0010F05D110F0120FE2
:1007D0001CBF00F01C00704700207047036A43F004
:1007E00010030362002A14BF0E4A0F4A02EB820371
:1007F00001EB830302EB820292005B1EB3FBF2F279
:10080000521EC260D0F8C02F12F0010F08BF70470F
:10081000064A1144521CB1FBF2F1491E41F080011D
:10082000C1607047801A0600A08601007F4737012B
:1008300042EA4101016070471649042804BF086874
:1008400040F4803018D0052804BF086840F4003018
:1008500012D0062812D00F2815D0102838BF7047A4
:10086000103800F01F01012202FA01F142090A4882
:1008700050F822000160704708607047086840F433
:100880008020086070474FF0E020016941F00201CC
:100890000161704724ED00E0C0180000084A20F014
:1008A0000303D25813688007C00E4FF0FF0C0CFAF8
:1008B00000FC23EA0C0301FA00F0184310607047B3
:1008C0002418000010B5194800F046FA00BF174878
:1008D00000F056FA0028FAD01448C01C00F03CFA88
:1008E00000BF1248C01C00F04BFA0028F9D00F4896
:1008F000C01D00F031FA00BF0C48C01D00F040FAE6
:100900000028F9D001210A48FFF7D9FE0321094840
:10091000FFF7D5FE03210848FFF7C3FE0A23012293
:1009200003210548FFF7FBFD10BD0000050800F09E
:10093000005002400040064000D0034010B51F4860
:1009400000F00AFA1E4800F007FA1E48FFF784FE7E
:100950001D48FFF781FE04211C48FFF7CCFE08214B
:100960001A48FFF7BAFE0122194801681948FFF733
:1009700035FFFF220C212220FFF7DAFE00220D2195
:100980002220FFF7D5FE00220E212220FFF7D0FE05
:10099000FF2206212220FFF7CBFE00220521222084
:1009A000FFF7C6FE002203211820FFF7C1FEFF2239
:1009B00001211820FFF7BCFE10BD0000002000F050
:1009C000010800F002080100020C01000050004084
:1009D000040000200000024010B50448006800F048
:1009E000FFF900F0EAF900F0EFF910BD0400002073
:1009F00010B5174800F0B0F9164800F0ADF900BF87
:100A0000144800F0BDF90028FAD00120FFF724FEB9
:100A100040F20140FFF720FE03214FF04020FFF796
:100A200078FE60234FF4E1320B4801680B4800F078
:100A3000F8FB0BA000F038FC1520FFF7FDFE50215D
:100A4000064800F027FC00211520FFF727FF10BD06
:100A5000001800F0000800F00400002000C0004072
:100A60000D0A48656C6C6F2C20776F726C64210DD9
:100A70000A0000002DE9F003AD4D02462868AD4B99
:100A80001840A0F18053B3F5A02358D002F03809E4
:100A9000DFF8A482C2F38414B9F1100F24D0B9F1A5
:100AA000300F04BF47F230504FF400130CD0382001
:100AB000904304BF4FF40040C30105D012F0380F3B
:100AC0001CBF0020034613D09C4F12F4605F4FF010
:100AD000000618BF00222CD057F8324044457DD381
:100AE00007EBC2025268DFE0002340461524EBE723
:100AF000A4F10900122822D29148D5F87CC04FF009
:100B00004C7350F824002CF01C0C072CA8BF4CF0A0
:100B1000100CC5F87CC02E6D4FF4002C16F4807FAD
:100B2000D2D1BCF1010C0AD02E6D16F4807FF8D022
:100B3000CAE712F0380F18BFB9F1100F03D0BDE8A3
:100B4000F00300207047C2F30268DFF8F8C100220A
:100B500057F83290E14503D307EBC202526803E035
:100B6000521C062AF4D33246C5F8C020D5F8B0206E
:100B7000DFF8D4C102EA0C0242F00042C5F8B0200E
:100B8000DFF8C8C1A4F109024C1E5CF828C0A444D7
:100B9000BCFBF1FCD5F8B0101943C5F8B01008EB58
:100BA000C80101EB41046A4902EB420201EBC401B6
:100BB00001EB82046468C5F86441D5F864416FF0C4
:100BC000FF0808EB0C2C44EA0C0CC5F864C151F882
:100BD0002210D5F8602102F4000200E05FE011432A
:100BE000C5F86011D5F86011D5F86021C1F38921ED
:100BF000C2F30904D5F86421C2F3042202F1010C06
:100C0000D5F8642102F01F02521CB0FBF2F04A0931
:100C1000C2F100084443424301EB481104EB521275
:100C2000484302EB9020B0FBFCF04108084600224C
:100C300057F832C0844503D307EBC200466802E090
:100C4000521C062AF4D3C5F8C060D5F8600110F430
:100C5000000F1DBFD5F8B00040F08040C5F8B000CF
:100C6000D5F8600104BF40F40000C5F860014FF4FE
:100C70000040D5F8682112F0010F02D1401E002873
:100C8000F7DC002808BF002148D0D5F8B000184391
:100C900040F0010040F01040C5F8B0003EE0521CAA
:100CA000062AFFF419AF3246C5F8C020D5F86021F6
:100CB00022F40002C5F86021D5F8B020DFF894C016
:100CC00002EA0C0242F00042C5F8B020002908BF39
:100CD0004FF0000C0AD0B0FBF1FCBCF1000F18BFC4
:100CE000ACF1010C0CF10101B0FBF1F1084600225E
:100CF00057F83240844203D307EBC200466802E053
:100D0000521C062AF4D3C5F8C060D5F8B00043EAF7
:100D10008C22104340F00040C5F8B000D5F8B00078
:100D200020F47000C5F8B000BDE8F0030846704735
:100D300000E00F400000FF700024F400341B0000AE
:100D40001819000040787D0100FC0FE01019000028
:100D500084190000FF0300EFC0F307230749C0B266
:100D6000194401F07043C1F3130143EA411141EA10
:100D7000800040F0007001220260704700E60F40E2
:100D8000C0F307220849C0B2114401F07042C1F318
:100D9000130142EA411141EA800040F0007000680E
:100DA000002818BF0120704700EA0F404FF0E020F4
:100DB000016921F00101016170474FF0E0200169F4
:100DC00041F00501016170474FF0E020016941F0F9
:100DD0000201016170474FF0E0204069401C7047FC
:100DE0004FF0E021401E4861704700001E48007827
:100DF000022805D11D4800683C301C4908600EE0FF
:100E000019480078032805D1184800683D30174973
:100E1000086004E015480068401C14490860134845
:100E200000680A21B0FBF1F011490860084600682B
:100E30000621B0FBF1F00F490860084600680A215E
:100E4000B0FBF1F00C490860084600680621B0FBD1
:100E5000F1F00A490880084600880A2190FBF1F069
:100E6000074908707047000030000020280000206B
:100E700024000020200000201C0000201A00002078
:100E8000190000200448006840F47000024908601E
:100E9000024803490860704788ED00E00024F40030
:100EA000400000202DE9F04100250121C34800F059
:100EB000F5F907463946C14800F0EAF912E0BF48A3
:100EC00000F094F9BE49087008460078BD494855BD
:100ED0000021BC4A681C115445B2C5EB05114800FD
:100EE000FFF703FBB54800F097F90028E7D1B648B3
:100EF0000168B448FFF77CFA00284ED15420B1496C
:100F00000870492048704D2088704520C870AF484F
:100F10000078062190FBF1F201FB12003030A94964
:100F20000871AB4800880A2190FBF1F201FB120026
:100F30003030A44948713A208871A64800680621DB
:100F4000B0FBF1F201FB120030309E49C871A2489B
:100F500000680A21B0FBF1F201FB12003030994920
:100F600008723A2048729D4800680621B0FBF1F2F1
:100F700001FB1200303093498872994800680A21B9
:100F8000B0FBF1F201FB120030308E49C872002034
:100F90000873084600F096F90DE192480168894807
:100FA000FFF714FA874988424ED100240846C078DA
:100FB000303800EB80004000C0EB4011C1EB002056
:100FC00004EB00147F4800793038C0EB4011C1EBCE
:100FD000002004EB00147B488079303800EB80005F
:100FE0004000C0EB001004EB80047648C079303834
:100FF000C0EB001004EB80047248407A303800EBFC
:10100000800004EB40046F48807A30380444601E4E
:101010007349086000206B4908730B2605E0701EB9
:101020006849085C8855701E46B2042EF7DA5420D1
:1010300064490870492048704D2088704520C87068
:10104000084600F03FF9B6E0674801685D48FFF7E1
:10105000BDF95C4988427DD100240846C07830380B
:1010600000EB80004000C0EB4011C1EB002004EB1E
:101070000014544800793038C0EB4011C1EB002017
:1010800004EB00144F488079303800EB80004000BA
:10109000C0EB001004EB80044A48C0793038C0EB44
:1010A000001004EB80044748407A303800EB8000A1
:1010B00004EB40044348807A30380444601E4849B9
:1010C0000968084446490860084600680A21B0FBE0
:1010D000F1F042490860084600680621B0FBF1F0D3
:1010E0003D490860084600680A21B0FBF1F0394923
:1010F0000860084600680621B0FBF1F0344908801A
:10110000084600880A2190FBF1F03049087054200D
:101110002C490870492048704D2088704520C870BF
:101120002A480078062190FBF1F201FB12003030D2
:1011300024490871264800880A2190FBF1F201FB3E
:10114000120030301F4948713A20887121480068E8
:10115000062100E02CE0B0FBF1F201FB1200303080
:101160001849C8711C4800680A21B0FBF1F201FB64
:1011700012003030134908723A204872174800684C
:101180000621B0FBF1F201FB120030300D498872EC
:10119000134800680A21B0FBF1F201FB1200303065
:1011A0000849C87200200873084600F08BF802E076
:1011B000044800F087F8BDE8F081000000C000405E
:1011C00031000020440000203400002019000020DD
:1011D0001A0000201C000020200000202400002015
:1011E00028000020380000203C000020816911F018
:1011F000100F0CBF00684FF0FF307047826912F08B
:10120000200FFBD101607047826912F0200F06BFEA
:1012100001600120002070478069012121EA10103F
:101220007047D0F818C01CF0080FFAD1D0F82CC0C5
:101230002CF0100CC0F82CC0D0F830C02CF0010CF1
:101240002CF4407CC0F830C0D0F830C0B1EB021FA5
:1012500034BF4CF0200C2CF0200CC0F830C038BF4C
:101260005208C900B1FBF2F1491C49088A094262DF
:1012700001F03F018162C36200218161C16A41F0D6
:101280001001C162016B40F20132114301637047EA
:1012900041647047826B114381637047002914BF1A
:1012A000006CC06B7047000010B5044604E014F8F1
:1012B000011B0348FFF7A2FF20780028F7D110BDDB
:1012C00000C0004010B5044604E014F8011B0348B8
:1012D000FFF79AFF20780028F7D110BD00C000402A
:1012E000AC4943F65050FFF7C5FBAB490860FFF728
:1012F000E9FAFFF723FBFFF76FFBFFF779FB47E105
:101300000121A648FFF7CAF9A54908700221A348A0
:10131000FFF7C4F9A3490870A3480078A0490978E9
:10132000884207D09E48007820B9A0480068401C39
:101330009E4908609A4800789B4908709C4800784C
:1013400098490978884207D09648007820B997488C
:1013500000683C30954908609248007894490870CC
:101360008F480078A8B18F48007890B1FFF71EFD34
:1013700089480068FFF734FD00BFFFF72CFD864960
:1013800009688842F9D100208A490870FFF715FDE5
:1013900058E083480078E0B982480078C8B1FFF788
:1013A00005FD7D4800680521B0FBF1F42046FFF7FC
:1013B00017FD00BFFFF70FFD774909680522B1FB54
:1013C000F2F18842F6D101207A490870FFF7F5FC66
:1013D00038E073480078E0B172480078C8B9FFF788
:1013E000E5FC6D4800680521B0FBF1F42046FFF7ED
:1013F000F7FC00BFFFF7EFFC674909680522B1FB66
:10140000F2F18842F6D102206A490870FFF7D5FC54
:1014100018E0FFF7CBFC604800680521B0FBF1F451
:101420002046FFF7DDFC00BFFFF7D5FC5A490968ED
:101430000522B1FBF2F18842F6D103205D49087024
:10144000FFF7BBFC012206212220FFF771F95A4861
:101450000078062190FBF1F201FB120057490C5C69
:10146000224605212220FFF763F942F21070FFF7B0
:101470003CF8022206212220FFF75AF95048008842
:101480000A2190FBF1F201FB12004C490C5C224650
:1014900005212220FFF74CF942F21070FFF725F8E2
:1014A000042206212220FFF743F9092205212220E8
:1014B000FFF73EF942F21070FFF717F808220621F5
:1014C0002220FFF735F93F4800680621B0FBF1F212
:1014D00001FB120039490C5C224605212220FFF74E
:1014E00027F942F21070FFF700F81022062122209F
:1014F000FFF71EF9344800680A21B0FBF1F201FB46
:1015000012002E490C5C224605212220FFF710F91B
:1015100042F21070FEF7E9FF202206212220FFF799
:1015200007F9092205212220FFF702F942F2107083
:10153000FEF7DBFF402206212220FFF7F9F82348BF
:1015400000680621B0FBF1F201FB12001B490C5CA4
:10155000224605212220FFF7EBF842F21070FEF739
:10156000C4FF802206212220FFF7E2F80F4800681E
:101570000A21B0FBF1F201FB120010490C5C22467B
:1015800005212220FFF7D4F842F21070FEF7ADFFDC
:10159000B6E600000024F4000400002000D0034060
:1015A0002D0000202F0000202C000020280000200B
:1015B0002E0000203000002019000020080000202C
:1015C0001A0000201C000020200000202400002021
:1015D0004FF04070E1EE100A7047000000400040FC
:1015E0001000000000800540100000000050004086
:1015F0001100000000900540110000000060004054
:101600001200000000A00540120000000070004021
:101610001300000000B0054013000000004002402D
:101620001400000000C005401400000000500240FB
:101630002E00000000D005402E0000000060024097
:101640002F00000000E005402F0000000070024065
:101650003000000000F005403000000000D00340E2
:101660004600000000000640460000000010064052
:1016700047000000002006404800000000300640FF
:101680007F0000000040064080000000005006403F
:1016900084000000006006408C0000000040004014
:1016A00010000000008005401000000000500040C5
:1016B0001100000000900540110000000060004093
:1016C0001200000000A00540120000000070004061
:1016D0001300000000B0054013000000004002406D
:1016E0001400000000C0054014000000005002403B
:1016F0002E00000000D005402E00000000600240D7
:101700002F00000000E005402F00000000700240A4
:101710003000000000F005403000000000D0034021
:101720004300000000000640430000000010064097
:101730004400000000200640450000000030064044
:1017400058000000004006405900000000500640CC
:101750005C0000000060064064000000007006406D
:101760006C000000008006406D0000000090064004
:101770007F00000000400040008005400050004015
:10178000009005400060004000A00540007000404F
:1017900000B005400040024000C00540005002403B
:1017A00000D005400060024000E0054000700240AB
:1017B00000F0054000D00340000006400010064045
:1017C0000010064000200640002006400030064081
:1017D00000300640004006400040064000500640F1
:1017E0000050064000600640006006400070064061
:1017F00000700640008006400080064000900640D1
:1018000000900640000700000006000000050000F0
:1018100000040000000300000002000000010000BE
:10182000000000000000000018ED00E01CED00E0EA
:1018300020ED00E000E400E004E400E008E400E063
:101840000CE400E010E400E014E400E018E400E040
:101850001CE400E020E400E024E400E028E400E0F0
:101860002CE400E030E400E034E400E038E400E0A0
:101870003CE400E040E400E044E400E048E400E050
:101880004CE400E050E400E054E400E058E400E000
:101890005CE400E060E400E064E400E068E400E0B0
:1018A0006CE400E070E400E074E400E078E400E060
:1018B0007CE400E080E400E084E400E088E400E010
:1018C00000E100E004E100E008E100E00CE100E0FC
:1018D00010E100E080E100E084E100E088E100E068
:1018E0008CE100E090E100E000E200E004E200E0D2
:1018F00008E200E00CE200E010E200E080E200E03C
:1019000084E200E088E200E08CE200E090E200E0A7
:1019100000688909001C4E0E40420F0000201C0088
:1019200080841E0000802500999E3600004038000B
:1019300000093D0000803E0000004B00404B4C0081
:1019400000204E00808D5B0000C05D0000807000B4
:1019500000127A0000007D0080969800001BB700FE
:101960000080BB00C0E8CE00647ADA000024F400F6
:101970000000FA0080A81201002D310100366E012E
:1019800040787D01400000000000000000010000E0
:101990003E0008000000000000010000A000000060
:1019A00002000000000100003454010000000000AB
:1019B000000100002B700600000000000001000084
:1019C00028000000000000000001000027000100C6
:1019D00000000000000100002000000000000000E6
:1019E00000010000500000000200000000010000A3
:1019F0001AAC00000000000000010000179409006C
:101A00000000000000010000169805000000000022
:101A100000010000140000000000000000010000B0
:101A2000138008000000000000010000A00000007A
:101A3000080000000001000010000000000000008D
:101A4000000100002800000002000000000100006A
:101A500040000000040000000001000060000000E1
:101A600000000000000100005D000C00000000000C
:101A70000001000050000000000000000001000014
:101A80004E000200000000000001000041AC010017
:101A900000000000000100003C0000000000000009
:101AA000000100003A800900000000000001000071
:101AB00030000000000000000001000028000000CD
:101AC00000000000000100002700010000000000ED
:101AD000000100002360060000000000000100007B
:101AE0002160080000000000000100001E0000004E
:101AF00000000000000100001DC004000000000004
:101B00000001000050000000020000000001000081
:101B10001800000000000000000100001400000098
:101B20000000000000010000600000000400000050
:101B3000000100000024F40030003000005A62026E
:101B40009100910000879303D200D20000B4C40436
:101B50001301130100E1F50554015401000E27079C
:101B600095019501494E430047455454494D450060
:101B700053455400941B0000000000204400000066
:101B80003C020000D81B000044000020B40200000A
:101B90005802000000000000000000003F065B4FFC
:101BA000666D7D077F6F777C585E79715C00000001
:101BB0000000000000000000000000000000000025
:101BC0000101010100000000681B0000701B000003
:081BD000641B00000024F40076
:04000005000002A154
:00000001FF
