:020000040000FA
:1000000090020020D1020000D9020000DB020000B3
:10001000DD020000DF020000E1020000000000003D
:10002000000000000000000000000000E3020000EB
:10003000E502000000000000E7020000510F000090
:10004000EB020000ED020000EF020000F1020000F0
:10005000F3020000F5020000F7020000F9020000C0
:10006000FB020000FD020000FF020000010300008F
:10007000030300000503000007030000090300005C
:100080000B0300000D0300000F030000110300002C
:1000900013030000150300001703000019030000FC
:1000A0001B0300001D0300001F03000021030000CC
:1000B000230300002503000027030000290300009C
:1000C0002B0300002D0300002F030000310300006C
:1000D000330300003503000037030000390300003C
:1000E0003B0300003D0300003F030000410300000C
:1000F00043030000450300004703000049030000DC
:100100004B0300004D0300004F03000051030000AB
:10011000530300005503000057030000590300007B
:100120005B0300005D0300005F030000610300004B
:10013000630300006503000067030000690300001B
:100140006B0300006D0300006F03000089030000D3
:1001500000000000000000008B0300008D03000081
:100160008F030000910300000000000093030000D3
:100170009503000097030000990300009B03000013
:100180009D0300009F030000A1030000A3030000E3
:10019000A5030000A7030000A9030000AB030000B3
:1001A000AD030000AF030000B1030000B303000083
:1001B000B5030000B7030000B9030000BB03000053
:1001C000BD030000BF030000C1030000C303000023
:1001D000C5030000C7030000C9030000CB030000F3
:1001E000CD030000CF030000D1030000D3030000C3
:1001F000D5030000D7030000D9030000DB03000093
:1002000000F002F800F041F80AA090E8000C8244E7
:100210008344AAF10107DA4501D100F036F8AFF2C4
:10022000090EBAE80F0013F0010F18BFFB1A43F0D4
:100230000103184788140000A8140000103A24BFD6
:1002400078C878C1FAD8520724BF30C830C144BF3B
:1002500004680C607047000000230024002500267D
:10026000103A28BF78C1FBD8520728BF30C148BF19
:100270000B607047732900F0FE81002070471FB5A6
:1002800000F0B6FF1FBD10B510BD00F0F8F9114623
:10029000FFF7F5FF00F002FF00F016FA03B4FFF7D6
:1002A000F2FF03BC00F01EFAEFF3108072B6704745
:1002B000EFF310807047EFF3108062B6704730BFE5
:1002C000704780F311887047EFF31180704700008A
:1002D0004548804745480047FEE7FEE7FEE7FEE762
:1002E000FEE7FEE7FEE7FEE7FEE7FEE7FEE7FEE7E6
:1002F000FEE7FEE7FEE7FEE7FEE7FEE7FEE7FEE7D6
:10030000FEE7FEE7FEE7FEE7FEE7FEE7FEE7FEE7C5
:10031000FEE7FEE7FEE7FEE7FEE7FEE7FEE7FEE7B5
:10032000FEE7FEE7FEE7FEE7FEE7FEE7FEE7FEE7A5
:10033000FEE7FEE7FEE7FEE7FEE7FEE7FEE7FEE795
:10034000FEE7FEE7FEE7FEE7FEE7FEE7FEE7FEE785
:10035000FEE7FEE7FEE7FEE7FEE7FEE7FEE7FEE775
:10036000FEE7FEE7FEE7FEE7FEE7FEE7FEE7FEE765
:10037000FEE7FEE7FEE7FEE7FEE7FEE7FEE7FEE755
:10038000FEE7FEE7FEE7FEE7FEE7FEE7FEE7FEE745
:10039000FEE7FEE7FEE7FEE7FEE7FEE7FEE7FEE735
:1003A000FEE7FEE7FEE7FEE7FEE7FEE7FEE7FEE725
:1003B000FEE7FEE7FEE7FEE7FEE7FEE7FEE7FEE715
:1003C000FEE7FEE7FEE7FEE7FEE7FEE7FEE7FEE705
:1003D000FEE7FEE7FEE7FEE7FEE7FEE70448054925
:1003E000034A054B70470000D50F000001020000D2
:1003F0009000002090020020900000200FB41CB557
:10040000074B06AA7B4469460090059800F009F95D
:100410000020694600F018F91CBC5DF814FB0000D0
:100420004102000070B5044685690068C10601D527
:10043000302600E02026C00707D070BDD4E9012196
:1004400030469047206A401C20626D1EF6D570BD74
:1004500070B5044685690078C00707D170BDD4E93E
:10046000012120209047206A401C20626D1EF6D595
:1004700070BD70B50C460546012A05D02878800667
:1004800000D5EA69002302E0012305E05B1C9342EA
:1004900002D2E05C0028F9D1A869E618C01AA86168
:1004A000286A184428622846FFF7BCFF04E0D5E913
:1004B000012114F8010B9047B442F8D32846FFF706
:1004C000C7FF70BD2DE9F05F894604464FF0000A72
:1004D000DFF824B1FB44C0F820A02046E16888473B
:1004E00000287DD0252806D0D4E901219047206A34
:1004F000401C2062F1E700255F462046E1688847FE
:100500002028064607DB312E05D2B81910F8200C3A
:1005100008B10543F1E7A80701D525F00405C4F8A3
:100520001CA00027C4F818A02A2E09D0304600F0DD
:10053000ADFD38B304EB8708303EC8F8186019E009
:1005400059F8041B204604EB87029161E168884753
:10055000012F064618D1E069002820DA25F0200591
:100560001DE0D8F8180000EB800006EB40003038A2
:10057000C8F818002046E1688847064600F086FD66
:100580000028EED1012F0AD02E2E08D12046E16896
:1005900088477F1C0646022F45F02005C4DBA06972
:1005A000002803DA404245F00105A061E80701D0C8
:1005B00025F01005A6B1A6F14100192802D8203671
:1005C00045F400654A463146204625604D46FFF712
:1005D00051FE60B1012807D0ED1D25F0070000E0B5
:1005E00007E000F1080978E705F1040975E73046EE
:1005F0007AE7206ABDE8F09FD0110000401ECAB221
:1006000010F8011F8A4202D00029F9D1002070475A
:10061000704770477047000001694A1C0261087802
:10062000704700B58FB0CDE9013100210591054932
:100630007944CDE9031011466846FFF743FF0FB038
:1006400000BD0000E5FFFFFF0A6802F8010B0A6029
:10065000704710B5436913B1AFF3008001E0FFF7B5
:1006600008FF012010BD127800F124010A70002259
:100670004A700122EDE711684FF0FF32E9E7754655
:1006800000F02CF8AE4605006946534620F00700FE
:10069000854618B020B5FFF7A1FEBDE820404FF019
:1006A00000064FF000074FF000084FF0000B21F05C
:1006B0000701AC46ACE8C009ACE8C009ACE8C00929
:1006C000ACE8C0098D46704710B50446AFF3008012
:1006D0002046BDE81040FFF7E1BD0000004870472C
:1006E0003000002001491820ABBEFEE726000200C2
:1006F0007047000070B5044621780648FFF77EFF7A
:1007000005460DB9002070BD0248281A0249085C50
:10071000F9E70000FA11000012120000D0F80034CE
:1007200012F0010F14BF0B438B43C0F8003412F0DA
:10073000020FD0F8202414BF114322EA0101C0F8AF
:10074000201470472DE9F00301264FF0000C03251B
:10075000C2F3411706FA0CF40C4211D0D0F8C48F42
:100760004FEA4C0405FA04F928EA0908C0F8C48FD6
:10077000D0F8C48F07FA04F448EA0404C0F8C44F60
:100780000CF1010C0CF0FF0CBCF1080FE2D3D0F817
:1007900000C512F0010F14BF4CEA010C2CEA010C49
:1007A000C0F800C5D0F804C512F0020F14BF4CEA1F
:1007B000010C2CEA010CC0F804C5D0F808C512F0F1
:1007C000040F14BF4CEA010C2CEA010CC0F808C558
:1007D000D0F818C512F0080F14BF4CEA010C2CEA2F
:1007E000010CC0F818C512F0100FD0F83C2514BF4A
:1007F0000A438A43C0F83C25D0F80C2513F0010FBA
:1008000014BF0A438A43C0F80C25D0F8102513F012
:10081000020F14BF0A438A43C0F81025D0F81425EC
:1008200013F0040F14BF0A438A43C0F81425D0F80C
:100830001C2513F0080F14BF0A438A43C0F81C2577
:10084000D0F8442513F4007F14BF0A438A43C0F84C
:100850004425D0F8402513F4407F14BF0A438A434F
:10086000C0F84025D0F82825002B0CBF114322EA00
:100870000101C0F82815BDE8F00370470E4AC0F327
:100880000741D26E01238B401A420C4A1ABF02EB79
:10089000C101496852F83110020AD1F82C354FF0E5
:1008A0000F0C0CFA02FC00F00F0023EA0C0390403E
:1008B0001843C1F82C05704700E00F40C413000036
:1008C00050F82100704730B50C4605460022FFF76E
:1008D00025FF21462846BDE8304008230122FFF7C6
:1008E00031BF30B50C46054608230122FFF72AFF29
:1008F00021462846BDE830400122FFF70FBF30B542
:100900000C4605460222FFF709FF21462846BDE8AE
:10091000304009230122FFF715BF30B50C460546CC
:100920000222FFF7FBFE21462846BDE8304008239F
:100930000122FFF707BF30B50C4605460222FFF73C
:10094000EDFE21462846BDE8304008230122FFF78E
:10095000F9BE40F8212070472DE9F04104460F46CA
:10096000154600BF184800F031F80028FAD10022DF
:100970002146154800F070F83946134800F02EF86B
:100980000321114800F028F800BF0F4800F01EF8BE
:100990000028FAD10C4800F028F8C6B229460A48C7
:1009A00000F01CF80521084800F016F800BF0648C2
:1009B00000F00CF80028FAD1034800F016F8C6B28F
:1009C0003046BDE8F081000000000240406810F0B1
:1009D000010018BF01207047416070478160704777
:1009E000016A41F0100101627047406810F0010F88
:1009F00005D110F0120F1CBF00F01C007047002042
:100A000070470000036A43F010030362002A14BF1A
:100A10000E4A0F4A02EB820301EB830302EB8202D0
:100A200092005B1EB3FBF2F2521EC260D0F8C02FE0
:100A300012F0010F08BF7047064A1144521CB1FB67
:100A4000F2F1491E41F08001C1607047801A060032
:100A5000A08601007F47370142EA410101607047EB
:100A600010B5FFF728FC002818BF012010BD0000BA
:100A700010B5194800F02EFA00BF174800F03EFAF2
:100A80000028FAD01448C01C00F024FA00BF124815
:100A9000C01C00F033FA0028F9D00F48C01D00F048
:100AA00019FA00BF0C48C01D00F028FA0028F9D040
:100AB00001210A48FFF715FF01210948FFF711FF3F
:100AC00003210848FFF7FFFE0A23012203210548FE
:100AD000FFF738FE10BD0000050800F0005002408E
:100AE0000040064000D0034010B51E4800F0F2F967
:100AF0001D4800F0EFF91D48FFF7C0FE1C48FFF746
:100B0000BDFE04211B48FFF708FF08211948FFF725
:100B1000F6FE0122184801681848FFF773FF1748CE
:100B2000FFF75EFFFF220C212220FFF715FF04468E
:100B300000220D212220FFF70FFF044600220E2184
:100B40002220FFF709FF0446002203211820FFF7A7
:100B500003FF0446FF2201211820FFF7FDFE044693
:100B600010BD0000002000F0010800F002080100A4
:100B7000020C0100005000400C0000200000024068
:100B800010B5124800F0A6F9114800F0A3F900BF13
:100B90000F4800F0B3F90028FAD00120FFF76EFEED
:100BA00040F20140FFF76AFE03214FF04020FFF7BB
:100BB000C2FE60234FF4E13206480168064800F0A7
:100BC0001FFA06A000F054FA10BD0000001800F053
:100BD000000800F00C00002000C000400D0A48652D
:100BE0006C6C6F2C20776F726C64210D0A00000012
:100BF0002DE9F003AD4D02462868AD4B1840A0F139
:100C00008053B3F5A02358D002F03809DFF8A4824E
:100C1000C2F38414B9F1100F24D0B9F1300F04BF1E
:100C200047F230504FF400130CD03820904304BFEB
:100C30004FF40040C30105D012F0380F1CBF002054
:100C4000034613D09C4F12F4605F4FF0000618BFAC
:100C500000222CD057F8324044457DD307EBC20226
:100C60005268DFE0002340461524EBE7A4F10900B9
:100C7000122822D29148D5F87CC04FF04C7350F81E
:100C800024002CF01C0C072CA8BF4CF0100CC5F84D
:100C90007CC02E6D4FF4002C16F4807FD2D1BCF1B5
:100CA000010C0AD02E6D16F4807FF8D0CAE712F03E
:100CB000380F18BFB9F1100F03D0BDE8F0030020C2
:100CC0007047C2F30268DFF8F8C1002257F832908B
:100CD000E14503D307EBC202526803E0521C062A27
:100CE000F4D33246C5F8C020D5F8B020DFF8D4C11F
:100CF00002EA0C0242F00042C5F8B020DFF8C8C199
:100D0000A4F109024C1E5CF828C0A444BCFBF1FC11
:100D1000D5F8B0101943C5F8B01008EBC80101EBC5
:100D200041046A4902EB420201EBC40101EB820477
:100D30006468C5F86441D5F864416FF0FF0808EBBA
:100D40000C2C44EA0C0CC5F864C151F82210D5F8FB
:100D5000602102F4000200E05FE01143C5F8601179
:100D6000D5F86011D5F86021C1F38921C2F30904D7
:100D7000D5F86421C2F3042202F1010CD5F86421F4
:100D800002F01F02521CB0FBF2F04A09C2F1000847
:100D90004443424301EB481104EB5212484302EB37
:100DA0009020B0FBFCF041080846002257F832C002
:100DB000844503D307EBC200466802E0521C062AB2
:100DC000F4D3C5F8C060D5F8600110F4000F1DBF62
:100DD000D5F8B00040F08040C5F8B000D5F860010B
:100DE00004BF40F40000C5F860014FF40040D5F89E
:100DF000682112F0010F02D1401E0028F7DC002804
:100E000008BF002148D0D5F8B000184340F00100D9
:100E100040F01040C5F8B0003EE0521C062AFFF436
:100E200019AF3246C5F8C020D5F8602122F400027F
:100E3000C5F86021D5F8B020DFF894C002EA0C02B2
:100E400042F00042C5F8B020002908BF4FF0000C66
:100E50000AD0B0FBF1FCBCF1000F18BFACF1010CE3
:100E60000CF10101B0FBF1F10846002257F83240C5
:100E7000844203D307EBC200466802E0521C062AF4
:100E8000F4D3C5F8C060D5F8B00043EA8C22104313
:100E900040F00040C5F8B000D5F8B00020F4700074
:100EA000C5F8B000BDE8F0030846704700E00F4009
:100EB0000000FF700024F400781600005C140000AD
:100EC00040787D0100FC0FE054140000C8140000BD
:100ED000FF0300EFC0F307230749C0B2194401F034
:100EE0007043C1F3130143EA411141EA800040F02D
:100EF000007001220260704700E60F40C0F3072235
:100F00000849C0B2114401F07042C1F3130142EA32
:100F1000411141EA800040F000700068002818BFCD
:100F20000120704700EA0F404FF0E020016941F0D6
:100F30000501016170474FF0E020016941F00201B5
:100F4000016170474FF0E021401E4861704700008A
:100F500010B51A48008828B118480088401E174963
:100F6000088005E0642015490880012014490870B4
:100F70001448008828B113480088401E1149088091
:100F800005E00A200F49088001200F49087001215F
:100F90000E48FFF795FC50B900200B49087008492E
:100FA0000870012211460A48FFF7D3FC04E0002232
:100FB00001210748FFF7CDFC10BD00000200002012
:100FC00005000020000000200400002000D00340A5
:100FD000004006400448006840F470000249086080
:100FE000024803490860704788ED00E00024F400DF
:100FF0002C000020826912F0200FFBD101607047A5
:10100000D0F818C01CF0080FFAD1D0F82CC02CF082
:10101000100CC0F82CC0D0F830C02CF0010C2CF40F
:10102000407CC0F830C0D0F830C0B1EB021F34BFF4
:101030004CF0200C2CF0200CC0F830C038BF520807
:10104000C900B1FBF2F1491C49088A09426201F06A
:101050003F018162C36200218161C16A41F01001D8
:10106000C162016B40F2013211430163704700001D
:1010700010B5044604E014F8011B0348FFF7BAFF5B
:1010800020780028F7D110BD00C0004030380A2871
:1010900001D2012070470020704700001CB545496F
:1010A0004548FFF7A5FD45490860084600684FF42C
:1010B0007A71B0FBF1F42046FFF744FFFFF734FFED
:1010C000FFF739FFFFF7CCFCFFF7D2FCFFF70CFD71
:1010D000FFF756FD3AA23CA13D48FFF78FF968E0C3
:1010E0003C48007808B300203A490870BDF8000079
:1010F000401C80B200901E2817DB0020009036486C
:10110000007828B1012211463448FFF722FC04E0A0
:10111000002201213148FFF71CFC2F48007808B954
:10112000012000E000202C4908702D48007800289C
:101130003FD000202A490870BDF80400401C80B24E
:101140000190052835DB002001902149254A1278BD
:101150008818FFF7CFFA0446224605212220FFF720
:10116000FBFB214908702148027806212220FFF765
:10117000F3FB1D4908701D480078C043C2B201212D
:101180001820FFF7E9FB1849087016480078401C42
:1011900014490870154800784006000E134908707D
:1011A00010480078082804DB0120087000200D4951
:1011B000087095E7002D3101500500F10C0000206A
:1011C00041624364000000002530387300000000D5
:1011D00021000020040000200900002000500240EF
:1011E0000500002007000020060000200A00002063
:1011F0004FF04070E1EE100A704730313233343531
:1012000036373839416243644546484C506F2E2D7D
:101210005F203F065B4F666D7D077F6F777C395E91
:1012200079717638735C804008000000004000400F
:101230001000000000800540100000000050004039
:101240001100000000900540110000000060004007
:101250001200000000A005401200000000700040D5
:101260001300000000B005401300000000400240E1
:101270001400000000C005401400000000500240AF
:101280002E00000000D005402E000000006002404B
:101290002F00000000E005402F0000000070024019
:1012A0003000000000F005403000000000D0034096
:1012B0004600000000000640460000000010064006
:1012C00047000000002006404800000000300640B3
:1012D0007F000000004006408000000000500640F3
:1012E00084000000006006408C00000000400040C8
:1012F0001000000000800540100000000050004079
:101300001100000000900540110000000060004046
:101310001200000000A00540120000000070004014
:101320001300000000B00540130000000040024020
:101330001400000000C005401400000000500240EE
:101340002E00000000D005402E000000006002408A
:101350002F00000000E005402F0000000070024058
:101360003000000000F005403000000000D00340D5
:10137000430000000000064043000000001006404B
:1013800044000000002006404500000000300640F8
:101390005800000000400640590000000050064080
:1013A0005C00000000600640640000000070064021
:1013B0006C000000008006406D00000000900640B8
:1013C0007F000000004000400080054000500040C9
:1013D000009005400060004000A005400070004003
:1013E00000B005400040024000C0054000500240EF
:1013F00000D005400060024000E00540007002405F
:1014000000F0054000D003400000064000100640F8
:101410000010064000200640002006400030064034
:1014200000300640004006400040064000500640A4
:101430000050064000600640006006400070064014
:101440000070064000800640008006400090064084
:101450000090064000688909001C4E0E40420F00B3
:1014600000201C0080841E0000802500999E36000C
:101470000040380000093D0000803E0000004B00A5
:10148000404B4C0000204E00808D5B0000C05D0092
:101490000080700000127A0000007D0080969800A5
:1014A000001BB7000080BB00C0E8CE00647ADA0001
:1014B0000024F4000000FA0080A81201002D310180
:1014C00000366E0140787D01400000000000000001
:1014D000000100003E0008000000000000010000C4
:1014E000A0000000020000000001000034540100D0
:1014F00000000000000100002B700600000000004A
:1015000000010000280000000000000000010000B1
:101510002700010000000000000100002000000082
:101520000000000000010000500000000200000068
:10153000000100001AAC00000000000000010000E3
:101540001794090000000000000100001698050033
:101550000000000000010000140000000000000076
:1015600000010000138008000000000000010000DE
:10157000A0000000080000000001000010000000B2
:101580000000000000010000280000000200000030
:101590000001000040000000040000000001000005
:1015A0006000000000000000000100005D000C0071
:1015B00000000000000100005000000000000000DA
:1015C000000100004E0002000000000000010000C9
:1015D00041AC010000000000000100003C000000E0
:1015E00000000000000100003A8009000000000037
:1015F00000010000300000000000000000010000B9
:101600002800000000000000000100002700010089
:101610000000000000010000236006000000000040
:10162000000100002160080000000000000100002F
:101630001E00000000000000000100001DC00400AA
:101640000000000000010000500000000200000047
:101650000001000018000000000000000001000070
:101660001400000000000000000100006000000005
:1016700004000000000100000024F40030003000ED
:10168000005A62029100910000879303D200D200B9
:1016900000B4C4041301130100E1F5055401540121
:1016A000000E2707950195010400000800000000C6
:1016B000000000020001000010000000DC16000025
:1016C00000000020300000003C0200000C17000069
:1016D00030000020600200005802000000000000FE
:1016E0000000000000000100000000003F065B4F0A
:1016F000666D7D077F6F777C585E79715C000000B6
:0C17000000000000000000000024F400C5
:04000005000002D124
:00000001FF
