:020000040000FA
:10000000D0080020C1020000C9020000CB0200009D
:10001000CD020000CF020000D1020000000000006D
:10002000000000000000000000000000D3020000FB
:10003000D502000000000000D70200008D0C000077
:10004000DB020000DD020000DF020000E102000030
:10005000E3020000E5020000E7020000E902000000
:10006000EB020000ED020000EF020000F1020000D0
:10007000F3020000F5020000F7020000F9020000A0
:10008000FB020000FD020000FF020000010300006F
:10009000030300000503000007030000090300003C
:1000A0000B0300000D0300000F030000110300000C
:1000B00013030000150300001703000019030000DC
:1000C0001B0300001D0300001F03000021030000AC
:1000D000230300002503000027030000290300007C
:1000E0002B0300002D0300002F030000310300004C
:1000F000330300003503000037030000390300001C
:100100003B0300003D0300003F03000041030000EB
:1001100043030000450300004703000049030000BB
:100120004B0300004D0300004F030000510300008B
:10013000530300005503000057030000590300005B
:100140005B0300005D0300005F0300007903000013
:1001500000000000000000007B0300007D030000A1
:100160007F03000081030000000000008303000003
:100170008503000087030000890300008B03000053
:100180008D0300008F030000910300009303000023
:100190009503000097030000990300009B030000F3
:1001A0009D0300009F030000A1030000A3030000C3
:1001B000A5030000A7030000A9030000AB03000093
:1001C000AD030000AF030000B1030000B303000063
:1001D000B5030000B7030000B9030000BB03000033
:1001E000BD030000BF030000C1030000C303000003
:1001F000C5030000C7030000C9030000CB030000D3
:1002000000F002F800F04CF80AA090E8000C8244DC
:100210008344AAF10107DA4501D100F041F8AFF2B9
:10022000090EBAE80F0013F0010F18BFFB1A43F0D4
:100230000103184748100000681000000A4410F835
:10024000014B14F00F0508BF10F8015B240908BF2B
:1002500010F8014B6D1E05D010F8013B6D1E01F822
:10026000013BF9D1641E03D0641E01F8015BFBD190
:100270009142E4D3704700000023002400250026AB
:10028000103A28BF78C1FBD8520728BF30C148BFF9
:100290000B6070471FB500F0ADFD1FBD10B510BD60
:1002A00000F0A7F81146FFF7F5FF00F02DFD00F074
:1002B000C5F803B4FFF7F2FF03BC00F0CDF800006F
:1002C0004548804745480047FEE7FEE7FEE7FEE772
:1002D000FEE7FEE7FEE7FEE7FEE7FEE7FEE7FEE7F6
:1002E000FEE7FEE7FEE7FEE7FEE7FEE7FEE7FEE7E6
:1002F000FEE7FEE7FEE7FEE7FEE7FEE7FEE7FEE7D6
:10030000FEE7FEE7FEE7FEE7FEE7FEE7FEE7FEE7C5
:10031000FEE7FEE7FEE7FEE7FEE7FEE7FEE7FEE7B5
:10032000FEE7FEE7FEE7FEE7FEE7FEE7FEE7FEE7A5
:10033000FEE7FEE7FEE7FEE7FEE7FEE7FEE7FEE795
:10034000FEE7FEE7FEE7FEE7FEE7FEE7FEE7FEE785
:10035000FEE7FEE7FEE7FEE7FEE7FEE7FEE7FEE775
:10036000FEE7FEE7FEE7FEE7FEE7FEE7FEE7FEE765
:10037000FEE7FEE7FEE7FEE7FEE7FEE7FEE7FEE755
:10038000FEE7FEE7FEE7FEE7FEE7FEE7FEE7FEE745
:10039000FEE7FEE7FEE7FEE7FEE7FEE7FEE7FEE735
:1003A000FEE7FEE7FEE7FEE7FEE7FEE7FEE7FEE725
:1003B000FEE7FEE7FEE7FEE7FEE7FEE7FEE7FEE715
:1003C000FEE7FEE7FEE7FEE7FEE7FEE70448054935
:1003D000034A054B70470000E90C000001020000D1
:1003E000D0060020D0080020D006002070477047BB
:1003F0007047754600F02CF8AE4605006946534636
:1004000020F00700854618B020B5FFF7DFFFBDE8F4
:1004100020404FF000064FF000074FF000084FF06B
:10042000000B21F00701AC46ACE8C009ACE8C009FC
:10043000ACE8C009ACE8C0098D46704710B5044669
:10044000AFF300802046BDE81040FFF732BF000048
:10045000004870476C06002001491820ABBEFEE73B
:10046000260002007047D0F8003412F0010F14BFCC
:100470000B438B43C0F8003412F0020FD0F8202455
:1004800014BF114322EA0101C0F8201470472DE97E
:10049000F00301264FF0000C0325C2F3411706FAC2
:1004A0000CF40C4211D0D0F8C48F4FEA4C0405FA7A
:1004B00004F928EA0908C0F8C48FD0F8C48F07FAF5
:1004C00004F448EA0404C0F8C44F0CF1010C0CF029
:1004D000FF0CBCF1080FE2D3D0F800C512F0010FF9
:1004E00014BF4CEA010C2CEA010CC0F800C5D0F88E
:1004F00004C512F0020F14BF4CEA010C2CEA010CE7
:10050000C0F804C5D0F808C512F0040F14BF4CEAB7
:10051000010C2CEA010CC0F808C5D0F818C512F07F
:10052000080F14BF4CEA010C2CEA010CC0F818C5E6
:1005300012F0100FD0F83C2514BF0A438A43C0F8CC
:100540003C25D0F80C2513F0010F14BF0A438A4351
:10055000C0F80C25D0F8102513F0020F14BF0A4381
:100560008A43C0F81025D0F8142513F0040F14BFE7
:100570000A438A43C0F81425D0F81C2513F0080F4D
:1005800014BF0A438A43C0F81C25D0F8442513F44D
:10059000007F14BF0A438A43C0F84425D0F84025A1
:1005A00013F4407F14BF0A438A43C0F84025D0F8B3
:1005B0002825002B0CBF114322EA0101C0F82815A1
:1005C000BDE8F003704700000E4AC0F30741D26E49
:1005D00001238B401A420C4A1ABF02EBC101496841
:1005E00052F83110020AD1F82C354FF00F0C0CFAEA
:1005F00002FC00F00F0023EA0C0390401843C1F8FE
:100600002C05704700E00F40980F000050F82100C3
:10061000704730B50C4605460022FFF724FF2146FF
:100620002846BDE8304008230122FFF730BF30B52F
:100630000C46054608230122FFF729FF21462846DC
:10064000BDE830400122FFF70EBF30B50C4605462D
:100650000222FFF708FF21462846BDE83040092363
:100660000122FFF714BF30B50C4605460222FFF702
:10067000FAFE21462846BDE8304008230122FFF754
:1006800006BF40F8212070472DE9F04105460F468E
:10069000164600BF1B4800F037F80028FAD10022A8
:1006A0002946184800F070F83946164800F034F82A
:1006B0000321144800F02EF800BF124800F024F87F
:1006C0000028FAD10F4800F029F8C4B234B104214F
:1006D0000C4800F01FF82046BDE8F081314609487B
:1006E00000F01AF80521074800F014F800BF05488B
:1006F00000F00AF80028FAD1024800F00FF8C4B25E
:100700002046E9E700000240406810F0010018BFF1
:10071000012070474160704781607047406810F069
:10072000010F05D110F0120F1CBF00F01C00704724
:1007300000207047036A43F010030362002A14BFCD
:100740000E4A0F4A02EB820301EB830302EB8202A3
:1007500092005B1EB3FBF2F2521EC260D0F8C02FB3
:1007600012F0010F08BF7047064A1144521CB1FB3A
:10077000F2F1491E41F08001C1607047801A060005
:10078000A08601007F47370142EA410101607047BE
:1007900030B40A4D2A680A4B9A421CBFD5F800C0F3
:1007A000002207D05CF8224043F82240521C9B2ACA
:1007B000F8D32B6043F8201030BC704708ED00E000
:1007C0000004002010B5194800F00AFA00BF1748CD
:1007D00000F01AFA0028FAD01448C01C00F000FA01
:1007E00000BF1248C01C00F00FFA0028F9D00F48D3
:1007F000C01D00F0F5F900BF0C48C01D00F004FA60
:100800000028F9D001210A48FFF711FF0321094808
:10081000FFF70DFF03210848FFF7FBFE0A23012223
:1008200003210548FFF733FE10BD0000050800F066
:10083000005002400040064000D0034010B51F4861
:1008400000F0CEF91E4800F0CBF91E48FFF7BCFEC1
:100850001D48FFF7B9FE04211C48FFF704FF0821DB
:100860001A48FFF7F2FE0122194801681948FFF7FC
:1008700061FFFF220C212220FFF706FF00220D213D
:100880002220FFF701FF00220E212220FFF7FCFEAD
:10089000FF2206212220FFF7F7FE00220521222059
:1008A000FFF7F2FE002203211820FFF7EDFEFF22E2
:1008B00001211820FFF7E8FE10BD0000002000F025
:1008C000010800F002080100020C01000050004085
:1008D000040000200000024010B5064909684808DD
:1008E00000F0CEF900F0ADF900F0B2F9024800F0E6
:1008F000B6F910BD040000208D0C00002DE9F003B6
:10090000AD4D02462868AD4B1840A0F18053B3F5B9
:10091000A02358D002F03809DFF8A482C2F384146F
:10092000B9F1100F24D0B9F1300F04BF47F23050A5
:100930004FF400130CD03820904304BF4FF4004014
:10094000C30105D012F0380F1CBF0020034613D09E
:100950009C4F12F4605F4FF0000618BF00222CD0AD
:1009600057F8324044457DD307EBC2025268DFE0BE
:10097000002340461524EBE7A4F10900122822D2F7
:100980009148D5F87CC04FF04C7350F824002CF0FF
:100990001C0C072CA8BF4CF0100CC5F87CC02E6DA9
:1009A0004FF4002C16F4807FD2D1BCF1010C0AD098
:1009B0002E6D16F4807FF8D0CAE712F0380F18BFFA
:1009C000B9F1100F03D0BDE8F00300207047C2F367
:1009D0000268DFF8F8C1002257F83290E14503D3EE
:1009E00007EBC202526803E0521C062AF4D33246D7
:1009F000C5F8C020D5F8B020DFF8D4C102EA0C0257
:100A000042F00042C5F8B020DFF8C8C1A4F10902E5
:100A10004C1E5CF828C0A444BCFBF1FCD5F8B01017
:100A20001943C5F8B01008EBC80101EB41046A494D
:100A300002EB420201EBC40101EB82046468C5F8D9
:100A40006441D5F864416FF0FF0808EB0C2C44EAD0
:100A50000C0CC5F864C151F82210D5F8602102F4DD
:100A6000000200E05FE01143C5F86011D5F86011A5
:100A7000D5F86021C1F38921C2F30904D5F86421B6
:100A8000C2F3042202F1010CD5F8642102F01F0226
:100A9000521CB0FBF2F04A09C2F100084443424341
:100AA00001EB481104EB5212484302EB9020B0FBDB
:100AB000FCF041080846002257F832C0844503D3B1
:100AC00007EBC200466802E0521C062AF4D3C5F8C0
:100AD000C060D5F8600110F4000F1DBFD5F8B0005C
:100AE00040F08040C5F8B000D5F8600104BF40F484
:100AF0000000C5F860014FF40040D5F8682112F0FD
:100B0000010F02D1401E0028F7DC002808BF002199
:100B100048D0D5F8B000184340F0010040F0104034
:100B2000C5F8B0003EE0521C062AFFF419AF324669
:100B3000C5F8C020D5F8602122F40002C5F8602174
:100B4000D5F8B020DFF894C002EA0C0242F000426F
:100B5000C5F8B020002908BF4FF0000C0AD0B0FB48
:100B6000F1FCBCF1000F18BFACF1010C0CF101015C
:100B7000B0FBF1F10846002257F83240844203D31B
:100B800007EBC200466802E0521C062AF4D3C5F8FF
:100B9000C060D5F8B00043EA8C22104340F000401A
:100BA000C5F8B000D5F8B00020F47000C5F8B0006A
:100BB000BDE8F0030846704700E00F400000FF70FA
:100BC0000024F4004C1200003010000040787D0139
:100BD00000FC0FE0281000009C100000FF0300EF55
:100BE000C0F307230749C0B2194401F07043C1F3B1
:100BF000130143EA411141EA800040F000700122F4
:100C00000260704700E60F40C0F307220849C0B2F7
:100C1000114401F07042C1F3130142EA411141EA6B
:100C2000800040F000700068002818BF0120704765
:100C300000EA0F404FF0E020016921F0010101615D
:100C400070474FF0E020016941F0050101617047F4
:100C50004FF0E020016941F002010161704710B5D9
:100C600001460F20FFF794FD4FF0E020016941F0AD
:100C70000201016110BD4FF0E0204069401C704747
:100C80004FF0E021401E48617047000010B5134846
:100C90000068401C114908600846007800F0070011
:100CA0000F490A5C06212220FFF7EEFC0B48007872
:100CB00000F007000B490A5C05212220FFF7E4FC45
:100CC0000648007800F007000549085CC043C2B23E
:100CD00001211820FFF7D8FC10BD000028000020DB
:100CE00019000020080000200448006840F470004B
:100CF00002490860024803490860704788ED00E037
:100D00000024F40038000020324943F65050FFF729
:100D1000F5FD31490860FFF755FDFFF78FFDFFF73F
:100D2000DBFD55E001212D48FFF770FC2C490870D0
:100D30002C4800780978884246D029480078002855
:100D400042D1FFF777FF012211462748FFF799FCB0
:100D5000264801780068401C244A106001F0030016
:100D600030B1012809D002280DD0032819D112E092
:100D7000194800681E49086013E0174800684000E1
:100D80001B4908600DE0144800680521B0FBF1F034
:100D90001749086005E010480068400814490860D9
:100DA00000BF00BF12480068FFF76AFF00BFFFF7EF
:100DB00062FF0F4909688842F9D1002201210A48DF
:100DC000FFF75FFCFFF73DFF054800780549087015
:100DD000A8E70000006A18000400002000D00340CB
:100DE0003500002034000020004006402C00002088
:100DF000300000204FF04070E1EE100A7047000014
:100E0000004000401000000000800540100000007D
:100E1000005000401100000000900540110000004B
:100E2000006000401200000000A005401200000019
:100E3000007000401300000000B0054013000000E7
:100E4000004002401400000000C0054014000000F3
:100E5000005002402E00000000D005402E0000008F
:100E6000006002402F00000000E005402F0000005D
:100E7000007002403000000000F00540300000002B
:100E800000D003404600000000000640460000007D
:100E90000010064047000000002006404800000007
:100EA000003006407F000000004006408000000047
:100EB0000050064084000000006006408C000000E6
:100EC00000400040100000000080054010000000BD
:100ED000005000401100000000900540110000008B
:100EE000006000401200000000A005401200000059
:100EF000007000401300000000B005401300000027
:100F0000004002401400000000C005401400000032
:100F1000005002402E00000000D005402E000000CE
:100F2000006002402F00000000E005402F0000009C
:100F3000007002403000000000F00540300000006A
:100F400000D00340430000000000064043000000C2
:100F5000001006404400000000200640450000004C
:100F600000300640580000000040064059000000D4
:100F7000005006405C000000006006406400000075
:100F8000007006406C000000008006406D0000000C
:100F9000009006407F0000000040004000800540B7
:100FA00000500040009005400060004000A0054057
:100FB0000070004000B005400040024000C0054005
:100FC0000050024000D005400060024000E00540B3
:100FD0000070024000F0054000D0034000000640D1
:100FE0000010064000100640002006400020064089
:100FF00000300640003006400040064000400640F9
:101000000050064000500640006006400060064068
:1010100000700640007006400080064000800640D8
:10102000009006400090064000688909001C4E0EA2
:1010300040420F0000201C0080841E00008025001C
:10104000999E36000040380000093D0000803E00B7
:1010500000004B00404B4C0000204E00808D5B0098
:1010600000C05D000080700000127A0000007D006A
:1010700080969800001BB7000080BB00C0E8CE003F
:10108000647ADA000024F4000000FA0080A812015B
:10109000002D310100366E0140787D0140000000D6
:1010A00000000000000100003E00080000000000F9
:1010B00000010000A000000002000000000100008C
:1010C0003454010000000000000100002B700600F5
:1010D00000000000000100002800000000000000E7
:1010E00000010000270001000000000000010000D6
:1010F000200000000000000000010000500000007F
:1011000002000000000100001AAC00000000000016
:101110000001000017940900000000000001000019
:1011200016980500000000000001000014000000F7
:101130000000000000010000138008000000000013
:1011400000010000A00000000800000000010000F5
:101150001000000000000000000100002800000056
:101160000200000000010000400000000400000038
:10117000000100006000000000000000000100000D
:101180005D000C00000000000001000050000000A5
:1011900000000000000100004E00020000000000FE
:1011A0000001000041AC010000000000000100004F
:1011B0003C00000000000000000100003A8009002F
:1011C00000000000000100003000000000000000EE
:1011D00000010000280000000000000000010000E5
:1011E000270001000000000000010000236006004D
:1011F0000000000000010000216008000000000065
:10120000000100001E0000000000000000010000BE
:101210001DC004000000000000010000500000009C
:1012200002000000000100001800000000000000A3
:101230000001000014000000000000000001000098
:101240006000000004000000000100000024F40021
:1012500030003000005A6202910091000087930331
:10126000D200D20000B4C4041301130100E1F5055B
:1012700054015401000E2707950195019C120000AE
:10128000000000206C0600003C020000CC120000B0
:101290006C060020640200007802000091001A141D
:1012A0003F065B4F666D7D077F6F777C585E797177
:1012B0005C010204081020408043010103FF24F474
:0C12C00001FF01FF01FF01FF01FF013EE3
:04000005000002C134
:00000001FF
